:100F07003F065B4F666D7D077F6F77790F1F0E7109
:010F170000D9
:100EBC00012B0002260000012A000218000002107B
:0E0ECC00000002080000020A000002210000DF
:100CE200E4F51FF5200520E5207002051FB498F5F4
:100CF200E51FB43AF09080107438F0E4F51FF52047
:100D02000520E5207002051FB468F5E51FB410F058
:100D12009080107438F0E4F51FF5200520E520706E
:100D220002051F6478451F70F29080107438F090AD
:100D32008012E020E7F99080107438F0908012E081
:100D420020E7F9908010740CF0908012E020E7F90F
:100D52009080107402F014F0908012E020E7F99075
:100D620080107406F0908012E020E7F990801074F1
:0A0D720080F0908012E020E7F922E3
:100A7900120F18120CE2E4F512F513F514F515F539
:100A890016F517AE14AF157C007D0A120C45AA069F
:100A9900AB07AE12AF137D64120C45EF2BFFEE3A94
:100AA900FEE5172FF524E5163EF523D3E52494003A
:100AB900E523648094804008852310852411800CE7
:100AC900751000751101751600751701D3E5249489
:100AD90070E52364809480400C751000751164756D
:100AE9001200751364120EF58E1F8F2085202AE4DB
:100AF900F52E741B252EF87610052EE52EB404F27A
:100B0900E52A75F064A4FFAEF07C007DFF120C5756
:100B19008E2C8F2D120E89EF64024E7016AE2CAFFB
:100B29002DFC7D0A120C578D1CAE2CAF2D7C007D3F
:100B39000A8050AF2DAE2C120E89EF64014E700E53
:100B4900AE2CAF2DFC7D0A120C578D1D803AAF2DAE
:100B5900AE2C120E89EF64034E702DAE2CAF2DFC16
:100B69007D0A120C578D1BAE2CAF2D7C007D0A120D
:100B79000C577C007D0A120C578D1CAE2CAF2D7CB6
:100B8900007D64120C578F1D9080117450F0908075
:100B990012E020E7F99080117457F0908012E0205C
:100BA900E7F9908011744DF0908012E020E7F990F8
:100BB9008011743AF0908012E020E7F99080117466
:100BC90020F0908012E020E7F9E51324309080119D
:100BD900F0908012E020E7F9E5152430908011F0BB
:100BE900908012E020E7F9908011742EF090801225
:100BF900E020E7F9E5172430908011F0908012E0A9
:100C090020E7F99080117420F0908012E020E7F934
:100C19009080117448F0908012E020E7F9908011DB
:100C2900747AF0908012E020E7F99080107480F0D7
:0C0C3900908012E020E703020A8C80F497
:100EDB00758911758850E4F58CF58AF58DF58BD2F3
:0A0EEB00A9D2AFD28CD28ED2AB2276
:060F1800E4F52A020EDBE5
:100E8900C3EF94E8EE6480948340057E007F0422DA
:100E9900C3EF9464EE6480948040057E007F032252
:100EA900C3EF940AEE648094807E0040037F02229F
:030EB9007F012294
:03000B00020E08DA
:100E0800C0E0C0F0C0D075D000C000C004C005C0AC
:100E180006C007C28C758CEC758A78309624C29609
:100E2800C374FF952AFFE49400FEAC10AD11120CB8
:100E3800458E188F19E5197810CEC313CE13D8F93B
:100E4800801CD296AF2A7E00AC10AD11120C458ED4
:100E5800188F19E5197810CEC313CE13D8F9FFC32C
:100E680074FF9FF58CC374FF9519F58AC28DD28CD7
:100E7800D007D006D005D004D000D0D0D0F0D0E034
:010E88003237
:03001B00020800D8
:10080000C0E0C083C082C0D075D000C000C007C2A5
:100810008E758DF6758B3C051AE51A5403F51AE5AD
:100820009054C0443C451AF590741B2529F8E69075
:100830000F0793908018F00529D3E52964809483ED
:100840004003752900A290E433750C00F50DA291C8
:10085000E433750E00F50FC290C291D292D293D2BA
:1008600094D295209208752800752B018022E52BE3
:10087000B4011DE5287019AF28E52725E02412F8FA
:10088000760008A6070527E52770020526752B00C8
:10089000209308752804752B018022E52BB4011DD7
:1008A000E528B40418FFE52725E02412F8760008AF
:1008B000A6070527E52770020526752B002094085A
:1008C000752808752B018022E52BB4011DE528B49D
:1008D0000818FFE52725E02412F8760008A607751A
:1008E0002B000527E52770020526D290D292D293DD
:1008F000D294D295209208752801752B018022E5AB
:100900002BB4011DE528B40118FFE52725E02412CA
:10091000F8760008A6070527E52770020526752B3F
:1009200000209308752805752B018022E52BB40162
:100930001DE528B40518FFE52725E02412F8760008
:1009400008A6070527E52770020526752B002094C9
:1009500008752809752B018022E52BB4011DE528B7
:10096000B40918FFE52725E02412F8760008A60749
:100970000527E52770020526752B00C290D291D27B
:1009800092D293D294D295209208752802752B01A9
:100990008022E52BB4011DE528B40218FFE52725C8
:1009A000E02412F8760008A6070527E5277002055F
:1009B00026752B00209308752806752B018022E5EB
:1009C0002BB4011DE528B40618FFE52725E0241205
:1009D000F8760008A6070527E52770020526752B7F
:1009E00000D290D292D293D294D2952092087528B8
:1009F00003752B018022E52BB4011DE528B40318F3
:100A0000FFE52725E02412F8760008A6070527E56C
:100A10002770020526752B00209308752807752B73
:100A2000018022E52BB4011DE528B40718FFE52756
:100A300025E02412F8760008A6070527E5277002AE
:100A40000526752B00E50C450D24FF9290E50E451B
:100A50000F24FF9291D3E5279402E52664809480C9
:100A60004006752600752700C28FD28ED007D000B1
:090A7000D0D0D082D083D0E03256
:100EF500908005F078FF79FFD8FED9FC908000E05E
:020F0500FF22C9
:03000000020D7C72
:0C0D7C00787FE4F6D8FD75812E020DC3CF
:100C4500EF8DF0A4A8F0CF8CF0A428CE8DF0A42EC3
:020C5500FE227D
:100C5700C2D5EC30E709B2D5E4C39DFDE49CFCEEB8
:100C670030E715B2D5E4C39FFFE49EFE120C8DC397
:100C7700E49DFDE49CFC8003120C8D30D507C3E492
:060C87009FFFE49EFE2227
:100D8800020A79E493A3F8E493A34003F68001F2FE
:100D980008DFF48029E493A3F85407240CC8C3336C
:100DA800C4540F4420C8834004F456800146F6DF3B
:100DB800E4800B0102040810204080900EBCE47E01
:100DC800019360BCA3FF543F30E509541FFEE49330
:100DD800A360010ECF54C025E060A840B8E493A3F7
:100DE800FAE493A3F8E493A3C8C582C8CAC583CA22
:100DF800F0A3C8C582C8CAC583CADFE9DEE780BEDA
:010EDA000017
:100C8D00BC000BBE0029EF8DF084FFADF022E4CC4B
:100C9D00F875F008EF2FFFEE33FEEC33FCEE9DEC14
:100CAD00984005FCEE9DFE0FD5F0E9E4CEFD22ED5A
:100CBD00F8F5F0EE8420D21CFEADF075F008EF2FA4
:100CCD00FFED33FD4007985006D5F0F222C398FD95
:050CDD000FD5F0EA2232
:00000001FF
