:100FD1003F065B4F666D7D077F6F77790F1F0E713F
:010FE100000F
:100F8600012B0002260000012A00021800000210B0
:0E0F9600000002080000020A00000221000014
:100DAC00E4F51FF5200520E5207002051FB498F529
:100DBC00E51FB43AF09080107438F0E4F51FF5207C
:100DCC000520E5207002051FB468F5E51FB410F08E
:100DDC009080107438F0E4F51FF5200520E52070A4
:100DEC0002051F6478451F70F29080107438F090E3
:100DFC008012E020E7F99080107438F0908012E0B7
:100E0C0020E7F9908010740CF0908012E020E7F944
:100E1C009080107402F014F0908012E020E7F990AA
:100E2C0080107406F0908012E020E7F99080107426
:0A0E3C0080F0908012E020E7F92218
:10080000120FE2120DACE4F512F513F514F515F51F
:1008100016F517AE14AF157C007D0A120D0FAA064F
:10082000AB07AE12AF137D64120D0FEF2BFFEE3A44
:10083000FEE5172FF524E5163EF523D3E5249400B5
:10084000E523648094804008852310852411800C62
:10085000751000751101751600751701D3E5249404
:1008600070E52364809480400C75100075116475E8
:100870001200751364120FBF8E1F8F2085202A90DF
:1008800080117457F0908012E020E7F99080117485
:1008900059F0908012E020E7F99080117450F090A8
:1008A0008012E020E7F9908011743AF0908012E015
:1008B00020E7F99080117420F0908012E020E7F991
:1008C000AE1FAF207C007D64120D0F7DFF120D2145
:1008D0008E1F8F207C007D64120D21EF24309080CC
:1008E00011F0908012E020E7F9AE1FAF207C007D70
:1008F0000A120D217C007D0A120D21ED243090801A
:1009000011F0908012E020E7F9AE1FAF207C007D4F
:100910000A120D21ED2430908011F0908012E02019
:10092000E7F99080117420F0908012E020E7F990B0
:1009300080117425F0908012E020E7F99080107407
:1009400080F0908012E020E7F9E4F52E741B252E4C
:10095000F87610052EE52EB404F2E52A75F064A4AD
:10096000FFAEF07C007DFF120D768E2C8F2D120FC6
:1009700053EF64024E7016AE2CAF2DFC7D0A120DA3
:10098000768D1CAE2CAF2D7C007D0A8050AF2DAE35
:100990002C120F53EF64014E700EAE2CAF2DFC7D68
:1009A0000A120D768D1D803AAF2DAE2C120F53EF2B
:1009B00064034E702DAE2CAF2DFC7D0A120D768D8A
:1009C0001BAE2CAF2D7C007D0A120D767C007D0ABB
:1009D000120D768D1CAE2CAF2D7C007D64120D7631
:1009E0008F1D9080117450F0908012E020E7F990F4
:1009F00080117457F0908012E020E7F99080117414
:100A00004DF0908012E020E7F9908011743AF09058
:100A10008012E020E7F99080117420F0908012E0BD
:100A200020E7F9E5132430908011F0908012E02047
:100A3000E7F9E5152430908011F0908012E020E76E
:100A4000F9908011742EF0908012E020E7F9E517FC
:100A50002430908011F0908012E020E7F99080110E
:100A60007420F0908012E020E7F99080117448F033
:100A7000908012E020E7F9908011747AF090801253
:100A8000E020E7F990801074C0F0908012E020E739
:060A90000302081380F4CC
:100FA500758911758850E4F58CF58AF58DF58BD228
:0A0FB500A9D2AFD28CD28ED2AB22AB
:060FE200E4F52A020FA550
:100F5300C3EF94E8EE6480948340057E007F04220F
:100F6300C3EF9464EE6480948040057E007F032287
:100F7300C3EF940AEE648094807E0040037F0222D4
:030F83007F0122C9
:03000B00020ED210
:100ED200C0E0C0F0C0D075D000C000C004C005C0E2
:100EE20006C007C28C758CEC758A78309624C2963F
:100EF200C374FF952AFFE49400FEAC10AD11120DED
:100F02000F8E188F19E5197810CEC313CE13D8F9A6
:100F1200801CD296AF2A7E00AC10AD11120D0F8E3E
:100F2200188F19E5197810CEC313CE13D8F9FFC361
:100F320074FF9FF58CC374FF9519F58AC28DD28C0C
:100F4200D007D006D005D004D000D0D0D0F0D0E069
:010F5200326C
:03001B00020A9640
:100A9600C0E0C083C082C0D075D000C000C007C20D
:100AA6008E758DF6758B3C051AE51A5403F51AE515
:100AB6009054C0443C451AF590741B2529F8E690DD
:100AC6000FD193908018F00529D3E529648094838B
:100AD6004003752900A290E433750C00F50DA29130
:100AE600E433750E00F50FC290C291D292D293D222
:100AF60094D295209208752800752B018022E52B4B
:100B0600B4011DE5287019AF28E52725E02412F861
:100B1600760008A6070527E52770020526752B002F
:100B2600209308752804752B018022E52BB4011D3E
:100B3600E528B40418FFE52725E02412F876000816
:100B4600A6070527E52770020526752B00209408C1
:100B5600752808752B018022E52BB4011DE528B404
:100B66000818FFE52725E02412F8760008A6077581
:100B76002B000527E52770020526D290D292D29344
:100B8600D294D295209208752801752B018022E512
:100B96002BB4011DE528B40118FFE52725E0241232
:100BA600F8760008A6070527E52770020526752BA7
:100BB60000209308752805752B018022E52BB401CA
:100BC6001DE528B40518FFE52725E02412F8760070
:100BD60008A6070527E52770020526752B00209431
:100BE60008752809752B018022E52BB4011DE5281F
:100BF600B40918FFE52725E02412F8760008A607B1
:100C06000527E52770020526752B00C290D291D2E2
:100C160092D293D294D295209208752802752B0110
:100C26008022E52BB4011DE528B40218FFE527252F
:100C3600E02412F8760008A6070527E527700205C6
:100C460026752B00209308752806752B018022E552
:100C56002BB4011DE528B40618FFE52725E024126C
:100C6600F8760008A6070527E52770020526752BE6
:100C760000D290D292D293D294D29520920875281F
:100C860003752B018022E52BB4011DE528B403185A
:100C9600FFE52725E02412F8760008A6070527E5D4
:100CA6002770020526752B00209308752807752BDB
:100CB600018022E52BB4011DE528B40718FFE527BE
:100CC60025E02412F8760008A6070527E527700216
:100CD6000526752B00E50C450D24FF9290E50E4583
:100CE6000F24FF9291D3E5279402E5266480948031
:100CF6004006752600752700C28FD28ED007D00019
:090D0600D0D0D082D083D0E032BD
:100FBF00908005F078FF79FFD8FED9FC908000E093
:020FCF00FF22FF
:03000000020E46A7
:0C0E4600787FE4F6D8FD75812E020E8D39
:100D0F00EF8DF0A4A8F0CF8CF0A428CE8DF0A42EF8
:020D1F00FE22B2
:100D2100BC000BBE0029EF8DF084FFADF022E4CCB6
:100D3100F875F008EF2FFFEE33FEEC33FCEE9DEC7F
:100D4100984005FCEE9DFE0FD5F0E9E4CEFD22EDC5
:100D5100F8F5F0EE8420D21CFEADF075F008EF2F0F
:100D6100FFED33FD4007985006D5F0F222C398FD00
:050D71000FD5F0EA229D
:100D7600C2D5EC30E709B2D5E4C39DFDE49CFCEE98
:100D860030E715B2D5E4C39FFFE49EFE120D21C3E2
:100D9600E49DFDE49CFC8003120D2130D507C3E4DD
:060DA6009FFFE49EFE2207
:100E5200020800E493A3F8E493A34003F68001F2AE
:100E620008DFF48029E493A3F85407240CC8C333A1
:100E7200C4540F4420C8834004F456800146F6DF70
:100E8200E4800B0102040810204080900F86E47E6B
:100E9200019360BCA3FF543F30E509541FFEE49365
:100EA200A360010ECF54C025E060A840B8E493A32C
:100EB200FAE493A3F8E493A3C8C582C8CAC583CA57
:100EC200F0A3C8C582C8CAC583CADFE9DEE780BE0F
:010FA400004C
:00000001FF
