:100B8C005000003F065B4F666D7D077F6F77790FD6
:100B9C001F0E71011000011B00011900011400014E
:100BAC001A0002110000011C00020E0000020C00D1
:0D0BBC000102080000020A000002170000FC
:0D0BE400908011F0120BF17420908011F040
:080BF100908012E020E7F922D8
:10080000120C09E4F515F5160516E5167002051526
:10081000B498F5E515B43AF09080107438F0E4F52A
:1008200015F5160516E51670020515B468F5E515FB
:10083000B410F09080107438F0E4F515F516051634
:10084000E516700205156478451570F290801074F5
:1008500038F0120BF19080107438F0120BF1908088
:1008600010740CF0120BF19080107402F014F0125E
:100870000BF19080107406F0120BF19080107480D0
:10088000F0120BF1750C00750DFA120BF9751500CD
:100890008F1685161C7450120BED908011744FF05A
:1008A000120BF19080117454F0120BF17430120B92
:1008B000E4AE11AF127C007D6412097BEF2430128C
:1008C0000BEDAE11AF127C007D6412097B8C158D8F
:1008D00016AE11AF127C007D0A12097BEF24301294
:1008E0000BEDAE11AF127C007D0A12097BED2430B6
:1008F000120BED9080107480F0120BF19080117447
:1009000050F0120BF19080117457F0120BF1744DEE
:10091000120BE49080117466120BE7AE0CAF0D7CE5
:10092000007D6412097BEF2430120BEDAE0CAF0D8D
:100930007C007D6412097B8C0C8D0DAE0CAF0D7CA0
:10094000007D0A12097BEF2430120BEDAE0CAF0DC7
:100950007C007D0A12097BED2430120BED90801093
:0909600074C0F0120BF1020884CE
:100BCA00758911758850E4F58CF58AF58DF58BD207
:0A0BDA00A9D2AFD28CD28ED2AB228A
:0F0BF900E4FF908005F00FBF78FC908005E0FFCF
:010C080022C9
:060C0900E4F51C020BCA19
:03000B00020B2ABB
:100B2A00C0E0C0F0C0D075D000C000C004C005C08D
:100B3A0006C007C28C758CEC758A7830960EC29600
:100B4A00C374FF951CFFE49400FE8006D296AF1C86
:100B5A007E00AC0CAD0D1209698E0E8F0FE50EFFEB
:100B6A00C374FF9FF58CC374FF950FF58AC28DD2AB
:100B7A008CD007D006D005D004D000D0D0D0F0D089
:020B8A00E03257
:03001B00020A06D0
:100A0600C0E0C083C082C0D075D000C000C005C0A1
:100A160006C007C28E758DEC758B780510E51054EF
:100A260003F510FF7401A807088002C333D8FCF54C
:100A36001BE59054C0443C4510F5907400251AF50A
:100A460082E43400F583E0908018F0751400740495
:100A56007E00A814088005C333CE33CED8F9FFAD87
:100A660090EF5D7017E51425E025E02510F5109050
:100A76008008E590F0AF907511008F120514E5140B
:100A8600B404CBC28FD28ED007D006D005D000D00A
:080A9600D0D082D083D0E03201
:050C0F00908006E022C8
:03000000020A9E53
:0C0A9E00787FE4F6D8FD75811C020AE5A3
:10096900EF8DF0A4A8F0CF8CF0A428CE8DF0A42EA2
:02097900FE225C
:10097B00C2D5EC30E709B2D5E4C39DFDE49CFCEE97
:10098B0030E715B2D5E4C39FFFE49EFE1209B1C355
:10099B00E49DFDE49CFC80031209B130D507C3E450
:0609AB009FFFE49EFE2206
:100AAA00020800E493A3F8E493A34003F68001F25A
:100ABA0008DFF48029E493A3F85407240CC8C3334D
:100ACA00C4540F4420C8834004F456800146F6DF1C
:100ADA00E4800B0102040810204080900B8CE47E15
:100AEA00019360BCA3FF543F30E509541FFEE49311
:100AFA00A360010ECF54C025E060A840B8E493A3D8
:100B0A00FAE493A3F8E493A3C8C582C8CAC583CA02
:100B1A00F0A3C8C582C8CAC583CADFE9DEE780BEBA
:010BC900002B
:1009B100BC000BBE0029EF8DF084FFADF022E4CC2A
:1009C100F875F008EF2FFFEE33FEEC33FCEE9DECF3
:1009D100984005FCEE9DFE0FD5F0E9E4CEFD22ED39
:1009E100F8F5F0EE8420D21CFEADF075F008EF2F83
:1009F100FFED33FD4007985006D5F0F222C398FD74
:050A01000FD5F0EA2210
:00000001FF
