:100C85003F065B4F666D7D077F6F77790F1F0E718E
:010C9500005E
:100C2E00011F000116000120000123000214000024
:100C3E0001220002120000020C0001020800000254
:070C4E000A0000021D000076
:0D0C7000908011F0120C7D7420908011F026
:080C7D00908012E020E7F9224B
:10080000120CA6E4F51BF51C051CE51C7002051B6B
:10081000B498F5E51BB43AF09080107438F0E4F524
:100820001BF51C051CE51C7002051BB468F5E51BD7
:10083000B410F09080107438F0E4F51BF51C051C22
:10084000E51C7002051B6478451B70F290801074E3
:1008500038F0120C7D9080107438F0120C7D90806E
:1008600010740CF0120C7D9080107402F014F012D1
:100870000C7D9080107406F0120C7D9080107480B6
:10088000F0120C7D750C00750DFA120C96751B009C
:100890008F1C851C227457120C799080117459F0AA
:1008A000120C7D7450120C70AE1BAF1C7C007D646A
:1008B0001209DC7DFF1209EE8E1B8F1C7C007D640B
:1008C0001209EEEF2430120C79AE1BAF1C7C007DB8
:1008D0000A1209EE7C007D0A1209EEED2430120C9A
:1008E00079AE1BAF1C7C007D0A1209EEED2430129C
:1008F0000C799080107480F0120C7DE4F52674174A
:100900002526F876100526E526B404F2120C96EF9B
:1009100075F064A4FFAEF07C007DFF120A438E24C4
:100920008F25120BFBEF64024E7016AE24AF25FC30
:100930007D0A120A438D18AE24AF257C007D0A8003
:1009400050AF25AE24120BFBEF64014E700EAE24A7
:10095000AF25FC7D0A120A438D19803AAF25AE24DB
:10096000120BFBEF64034E702DAE24AF25FC7D0A05
:10097000120A438D17AE24AF257C007D0A120A436C
:100980007C007D0A120A438D18AE24AF257C007DC1
:1009900064120A438F199080117450F0120C7D90EC
:1009A00080117457F0120C7D744D120C70908011F0
:1009B0007466120C73908011E510F0120C7D90801B
:1009C00011E50FF0120C7D908011E50EF0120C7DF8
:0C09D00090801074C0F0120C7D020884AE
:100C5600758911758850E4F58CF58AF58DF58BD27A
:0A0C6600A9D2AFD28CD28ED2AB22FD
:0F0C9600E4FF908005F00FBF78FC908005E0FF31
:010CA500222C
:060CA600E4F522020C56E9
:100BFB00C3EF94E8EE6480948340057E007F04226B
:100C0B00C3EF9464EE6480948040057E007F0322E2
:100C1B00C3EF940AEE648094807E0040037F02222F
:030C2B007F012224
:03000B00020B994C
:100B9900C0E0C0F0C0D075D000C000C004C005C01E
:100BA90006C007C28C758CEC758A7830960EC29691
:100BB900C374FF9522FFE49400FE8006D296AF220B
:100BC9007E00AC0CAD0D1209DC8E128F13E512FFFD
:100BD900C374FF9FF58CC374FF9513F58AC28DD238
:100BE9008CD007D006D005D004D000D0D0D0F0D01A
:020BF900E032E8
:03001B00020A795D
:100A7900C0E0C083C082C0D075D000C000C005C02E
:100A890006C007C28E758DEC758B780520E520545C
:100A990003F520E59054C0443C4520F59074172592
:100AA90021F8E6900C8593908018F00521D3E52173
:100AB90064809483400375210075160074047E00D8
:100AC900A816088005C333CE33CED8F9FFAD90EF11
:100AD9005D7015E51625E025E02520F52075140043
:100AE900F515908008E515F00516E516B404CDC294
:100AF9008FD28ED007D006D005D000D0D0D082D0EA
:040B090083D0E03283
:050CAC00908006E0222B
:03000000020B0DE3
:0C0B0D00787FE4F6D8FD758126020B54B9
:1009DC00EF8DF0A4A8F0CF8CF0A428CE8DF0A42E2F
:0209EC00FE22E9
:1009EE00BC000BBE0029EF8DF084FFADF022E4CCED
:1009FE00F875F008EF2FFFEE33FEEC33FCEE9DECB6
:100A0E00984005FCEE9DFE0FD5F0E9E4CEFD22EDFB
:100A1E00F8F5F0EE8420D21CFEADF075F008EF2F45
:100A2E00FFED33FD4007985006D5F0F222C398FD36
:050A3E000FD5F0EA22D3
:100A4300C2D5EC30E709B2D5E4C39DFDE49CFCEECE
:100A530030E715B2D5E4C39FFFE49EFE1209EEC34F
:100A6300E49DFDE49CFC80031209EE30D507C3E44A
:060A73009FFFE49EFE223D
:100B1900020800E493A3F8E493A34003F68001F2EA
:100B290008DFF48029E493A3F85407240CC8C333DD
:100B3900C4540F4420C8834004F456800146F6DFAC
:100B4900E4800B0102040810204080900C2EE47E02
:100B5900019360BCA3FF543F30E509541FFEE493A1
:100B6900A360010ECF54C025E060A840B8E493A368
:100B7900FAE493A3F8E493A3C8C582C8CAC583CA93
:100B8900F0A3C8C582C8CAC583CADFE9DEE780BE4B
:010C5500009E
:00000001FF
