:100CC3003F065B4F666D7D077F6F77790F1F0E7150
:010CD3000020
:100C6C00011F0001160001200001250002140000E4
:100C7C0001220002120000020C0001020800000216
:070C8C000A0000021D000038
:0D0CAE00908011F0120CBB7420908011F0AA
:080CBB00908012E020E7F9220D
:10080000120CE4E4F51BF51C051CE51C7002051B2D
:10081000B498F5E51BB43AF09080107438F0E4F524
:100820001BF51C051CE51C7002051BB468F5E51BD7
:10083000B410F09080107438F0E4F51BF51C051C22
:10084000E51C7002051B6478451B70F290801074E3
:1008500038F0120CBB9080107438F0120CBB9080F2
:1008600010740CF0120CBB9080107402F014F01293
:100870000CBB9080107406F0120CBB90801074803A
:10088000F0120CBB750C00750DFA120CD4751B0020
:100890008F1C851C227457120CB79080117459F06C
:1008A000120CBB7450120CAEAE1BAF1C7C007D64EE
:1008B000120AAE7DFF120AC08E1B8F1C7C007D6465
:1008C000120AC0EF2430120CB7AE1BAF1C7C007DA7
:1008D0000A120AC07C007D0A120AC0ED2430120CF4
:1008E000B7AE1BAF1C7C007D0A120AC0ED2430128B
:1008F0000CB79080107480F0120CBBE4F5287417CC
:100900002528F876100528E528B404F2120CD4EF57
:1009100075F064A4FFAEF07C007DFF120B158E26EF
:100920008F27120C39EF64024E7016AE26AF27FCEB
:100930007D0A120B158D18AE26AF277C007D0A802C
:1009400050AF27AE26120C39EF64014E700EAE2662
:10095000AF27FC7D0A120B158D19803AAF27AE2602
:10096000120C39EF64034E702DAE26AF27FC7D0AC2
:10097000120B158D17AE26AF277C007D0A120B15C2
:100980007C007D0A120B158D18AE26AF277C007DEA
:1009900064120B158F199080117450F0120CBB90DB
:1009A00080117457F0120CBB744D120CAE90801174
:1009B0007466120CB1E50E2430120CB7E50F24302A
:1009C000120CB7E5102430120CB7E5112430120CCC
:1009D000AE9080117448F0120CBB908011747AF0C4
:0F09E000120CBB90801074C0F0120CBB02088484
:100C9400758911758850E4F58CF58AF58DF58BD23C
:0A0CA400A9D2AFD28CD28ED2AB22BF
:0F0CD400E4FF908005F00FBF78FC908005E0FFF3
:010CE30022EE
:060CE400E4F522020C946D
:100C3900C3EF94E8EE6480948340057E007F04222C
:100C4900C3EF9464EE6480948040057E007F0322A4
:100C5900C3EF940AEE648094807E0040037F0222F1
:030C69007F0122E6
:03000B00020BD70E
:100BD700C0E0C0F0C0D075D000C000C004C005C0E0
:100BE70006C007C28C758CEC758A7830960EC29653
:100BF700C374FF9522FFE49400FE8006D296AF22CD
:100C07007E00AC0CAD0D120AAE8E128F13E512FFEB
:100C1700C374FF9FF58CC374FF9513F58AC28DD2F9
:100C27008CD007D006D005D004D000D0D0D0F0D0DB
:020C3700E032A9
:03001B000209EFE8
:1009EF00C0E0C083C082C0D075D000C000C005C0B9
:1009FF0006C007C28E758DEC758B780520E52054E7
:100A0F0003F520E59054C0443C4520F5907417251C
:100A1F0021F8E6900CC393908018F00521D3E521BF
:100A2F0064809483400375210075160074047E0062
:100A3F00A816088005C333CE33CED8F9FFAD90EF9B
:100A4F005D7040E51625E025E02520F520751400A2
:100A5F00F515AF15908008EFF0851423F524E524E4
:100A6F0064E77004E52364036019E525D39404401B
:100A7F0003752500740E2525F8A607052575230394
:100A8F007524E70516E516B404A2C28FD28ED007DF
:0F0A9F00D006D005D000D0D0D082D083D0E032A6
:050CEA00908006E022ED
:03000000020B4BA5
:0C0B4B00787FE4F6D8FD758128020B923B
:100AAE00EF8DF0A4A8F0CF8CF0A428CE8DF0A42E5C
:020ABE00FE2216
:100AC000BC000BBE0029EF8DF084FFADF022E4CC1A
:100AD000F875F008EF2FFFEE33FEEC33FCEE9DECE3
:100AE000984005FCEE9DFE0FD5F0E9E4CEFD22ED29
:100AF000F8F5F0EE8420D21CFEADF075F008EF2F73
:100B0000FFED33FD4007985006D5F0F222C398FD63
:050B10000FD5F0EA2200
:100B1500C2D5EC30E709B2D5E4C39DFDE49CFCEEFB
:100B250030E715B2D5E4C39FFFE49EFE120AC0C3A9
:100B3500E49DFDE49CFC8003120AC030D507C3E4A4
:060B45009FFFE49EFE226A
:100B5700020800E493A3F8E493A34003F68001F2AC
:100B670008DFF48029E493A3F85407240CC8C3339F
:100B7700C4540F4420C8834004F456800146F6DF6E
:100B8700E4800B0102040810204080900C6CE47E86
:100B9700019360BCA3FF543F30E509541FFEE49363
:100BA700A360010ECF54C025E060A840B8E493A32A
:100BB700FAE493A3F8E493A3C8C582C8CAC583CA55
:100BC700F0A3C8C582C8CAC583CADFE9DEE780BE0D
:010C93000060
:00000001FF
