:100B2D00011400020E0000020C0001020800000278
:070B3D000A00000212000093
:0D0B4500908011F0120B527420908011F07E
:080B5200908012E020E7F92277
:10080000120B6AE4F510F5110511E51170020510DF
:10081000B498F5E510B43AF09080107438F0E4F52F
:1008200010F5110511E51170020510B468F5E51019
:10083000B410F09080107438F0E4F510F511051143
:10084000E511700205106478451070F29080107404
:1008500038F0120B529080107438F0120B529080C6
:1008600010740CF0120B529080107402F014F012FD
:100870000B529080107406F0120B5290801074800E
:10088000F0120B52750C00750DFA120B5A75100010
:100890008F118511147450120B4E908011744FF00B
:1008A000120B529080117454F0120B527430120BD0
:1008B00045AE10AF117C007D6412097BEF2430122D
:1008C0000B4EAE10AF117C007D6412097B8C108D35
:1008D00011AE10AF117C007D0A12097BEF2430129B
:1008E0000B4EAE10AF117C007D0A12097BED243057
:1008F000120B4E9080107480F0120B529080117485
:1009000050F0120B529080117457F0120B52744D2C
:10091000120B459080117466120B48AE0CAF0D7C23
:10092000007D641209D0EF2430120B4EAE0CAF0DD7
:100930007C007D641209D08C0C8D0DAE0CAF0D7C4B
:10094000007D0A1209D0EF2430120B4EAE0CAF0D11
:100950007C007D0A1209D0ED2430120B4E908010DD
:0909600074C0F0120B520208846D
:100B1300758911758850E4F58CF58AF58DF58BD2BE
:0A0B2300A9D2AFD28CD28ED2AB2241
:0F0B5A00E4FF908005F00FBF78FC908005E0FF6E
:010B69002269
:060B6A00E4F514020B1378
:03000B00020A9254
:100A9200C0E0C0F0C0D075D000C000C004C005C026
:100AA20006C007C28C758CEC758A7830960EC29699
:100AB200C374FF9514FFE49400FE8006D296AF142F
:100AC2007E00AC0CAD0D1209698E0E8F0FE50EFF84
:100AD200C374FF9FF58CC374FF950FF58AC28DD244
:100AE2008CD007D006D005D004D000D0D0D0F0D022
:020AF200E032F0
:03001B00020AF4E2
:100AF400C0E0C083C082C28E758DEC758B78908007
:0F0B0400087403F0C28FD28ED082D083D0E0323B
:050B7000908006E02268
:03000000020A06EB
:0C0A0600787FE4F6D8FD758114020A4DDB
:10096900EF8DF0A4A8F0CF8CF0A428CE8DF0A42EA2
:02097900FE225C
:10097B00BC000BBE0029EF8DF084FFADF022E4CC60
:10098B00F875F008EF2FFFEE33FEEC33FCEE9DEC29
:10099B00984005FCEE9DFE0FD5F0E9E4CEFD22ED6F
:1009AB00F8F5F0EE8420D21CFEADF075F008EF2FB9
:1009BB00FFED33FD4007985006D5F0F222C398FDAA
:0509CB000FD5F0EA2247
:1009D000C2D5EC30E709B2D5E4C39DFDE49CFCEE42
:1009E00030E715B2D5E4C39FFFE49EFE12097BC336
:1009F000E49DFDE49CFC800312097B30D507C3E431
:060A00009FFFE49EFE22B0
:100A1200020800E493A3F8E493A34003F68001F2F2
:100A220008DFF48029E493A3F85407240CC8C333E5
:100A3200C4540F4420C8834004F456800146F6DFB4
:100A4200E4800B0102040810204080900B2DE47E0C
:100A5200019360BCA3FF543F30E509541FFEE493A9
:100A6200A360010ECF54C025E060A840B8E493A370
:100A7200FAE493A3F8E493A3C8C582C8CAC583CA9B
:100A8200F0A3C8C582C8CAC583CADFE9DEE780BE53
:010B440000B0
:00000001FF
