:100B7F005000003F065B4F666D7D077F6F77790FE3
:100B8F001F0E710110000119000117000112000161
:100B9F001800011A00020E0000020C0001020800EA
:090BAF0000020A0000021500001A
:0D0BD300908011F0120BE07420908011F062
:080BE000908012E020E7F922E9
:10080000120BF8E4F513F5140514E5147002051342
:10081000B498F5E513B43AF09080107438F0E4F52C
:1008200013F5140514E51470020513B468F5E51307
:10083000B410F09080107438F0E4F513F51405143A
:10084000E514700205136478451370F290801074FB
:1008500038F0120BE09080107438F0120BE09080AA
:1008600010740CF0120BE09080107402F014F0126F
:100870000BE09080107406F0120BE09080107480F2
:10088000F0120BE0750C00750DFA120BE8751300F1
:100890008F1485141A7450120BDC908011744FF071
:1008A000120BE09080117454F0120BE07430120BB4
:1008B000D3AE13AF147C007D6412097BEF24301299
:1008C0000BDCAE13AF147C007D6412097B8C138D9E
:1008D00014AE13AF147C007D0A12097BEF24301292
:1008E0000BDCAE13AF147C007D0A12097BED2430C3
:1008F000120BDC9080107480F0120BE09080117469
:1009000050F0120BE09080117457F0120BE0744D10
:10091000120BD39080117466120BD6AE0CAF0D7C07
:10092000007D641209D0EF2430120BDCAE0CAF0D49
:100930007C007D641209D08C0C8D0DAE0CAF0D7C4B
:10094000007D0A1209D0EF2430120BDCAE0CAF0D83
:100950007C007D0A1209D0ED2430120BDC9080104F
:0909600074C0F0120BE0020884DF
:100BB900758911758850E4F58CF58AF58DF58BD218
:0A0BC900A9D2AFD28CD28ED2AB229B
:0F0BE800E4FF908005F00FBF78FC908005E0FFE0
:010BF70022DB
:060BF800E4F51A020BB93E
:03000B00020B1DC8
:100B1D00C0E0C0F0C0D075D000C000C004C005C09A
:100B2D0006C007C28C758CEC758A7830960EC2960D
:100B3D00C374FF951AFFE49400FE8006D296AF1A97
:100B4D007E00AC0CAD0D1209698E0E8F0FE50EFFF8
:100B5D00C374FF9FF58CC374FF950FF58AC28DD2B8
:100B6D008CD007D006D005D004D000D0D0D0F0D096
:020B7D00E03264
:03001B00020A9244
:100A9200C0E0C083C082C0D075D000C000C005C015
:100AA20006C007C28E758DEC758B780510E5105463
:100AB20003F510FF7401A807088002C333D8FCF5C0
:100AC20019E59054C0443C4510F59074002518F582
:100AD20082E43400F583E0908018F075120074040B
:100AE2007E00A812088005C333CE33CED8F9FFADFD
:100AF20090EF5D700AE51225E025E02510F5180556
:100B020012E512B404D8C28FD28ED007D006D00517
:0B0B1200D000D0D0D082D083D0E032E1
:050BFE00908006E022DA
:03000000020A06EB
:0C0A0600787FE4F6D8FD75811A020A4DD5
:10096900EF8DF0A4A8F0CF8CF0A428CE8DF0A42EA2
:02097900FE225C
:10097B00BC000BBE0029EF8DF084FFADF022E4CC60
:10098B00F875F008EF2FFFEE33FEEC33FCEE9DEC29
:10099B00984005FCEE9DFE0FD5F0E9E4CEFD22ED6F
:1009AB00F8F5F0EE8420D21CFEADF075F008EF2FB9
:1009BB00FFED33FD4007985006D5F0F222C398FDAA
:0509CB000FD5F0EA2247
:1009D000C2D5EC30E709B2D5E4C39DFDE49CFCEE42
:1009E00030E715B2D5E4C39FFFE49EFE12097BC336
:1009F000E49DFDE49CFC800312097B30D507C3E431
:060A00009FFFE49EFE22B0
:100A1200020800E493A3F8E493A34003F68001F2F2
:100A220008DFF48029E493A3F85407240CC8C333E5
:100A3200C4540F4420C8834004F456800146F6DFB4
:100A4200E4800B0102040810204080900B7FE47EBA
:100A5200019360BCA3FF543F30E509541FFEE493A9
:100A6200A360010ECF54C025E060A840B8E493A370
:100A7200FAE493A3F8E493A3C8C582C8CAC583CA9B
:100A8200F0A3C8C582C8CAC583CADFE9DEE780BE53
:010BB800003C
:00000001FF
