:100B7F005000003F065B4F666D7D077F6F77790FE3
:100B8F001F0E71011800011600011100011700015D
:100B9F001900020E0000020C000102080000020AF8
:060BAF000000021400002A
:0D0BD000908011F0120BDD7420908011F068
:080BDD00908012E020E7F922EC
:10080000120BF5E4F512F5130513E513700205124A
:10081000B498F5E512B43AF09080107438F0E4F52D
:1008200012F5130513E51370020512B468F5E5120D
:10083000B410F09080107438F0E4F512F51305133D
:10084000E513700205126478451270F290801074FE
:1008500038F0120BDD9080107438F0120BDD9080B0
:1008600010740CF0120BDD9080107402F014F01272
:100870000BDD9080107406F0120BDD9080107480F8
:10088000F0120BDD750C00750DFA120BE5751200F8
:100890008F138513197450120BD9908011744FF077
:1008A000120BDD9080117454F0120BDD7430120BBA
:1008B000D0AE12AF137C007D6412097BEF2430129E
:1008C0000BD9AE12AF137C007D6412097B8C128DA4
:1008D00013AE12AF137C007D0A12097BEF24301295
:1008E0000BD9AE12AF137C007D0A12097BED2430C8
:1008F000120BD99080107480F0120BDD908011746F
:1009000050F0120BDD9080117457F0120BDD744D16
:10091000120BD09080117466120BD3AE0CAF0D7C0D
:10092000007D641209D0EF2430120BD9AE0CAF0D4C
:100930007C007D641209D08C0C8D0DAE0CAF0D7C4B
:10094000007D0A1209D0EF2430120BD9AE0CAF0D86
:100950007C007D0A1209D0ED2430120BD990801052
:0909600074C0F0120BDD020884E2
:100BB600758911758850E4F58CF58AF58DF58BD21B
:0A0BC600A9D2AFD28CD28ED2AB229E
:0F0BE500E4FF908005F00FBF78FC908005E0FFE3
:010BF40022DE
:060BF500E4F519020BB645
:03000B00020B1DC8
:100B1D00C0E0C0F0C0D075D000C000C004C005C09A
:100B2D0006C007C28C758CEC758A7830960EC2960D
:100B3D00C374FF9519FFE49400FE8006D296AF1999
:100B4D007E00AC0CAD0D1209698E0E8F0FE50EFFF8
:100B5D00C374FF9FF58CC374FF950FF58AC28DD2B8
:100B6D008CD007D006D005D004D000D0D0D0F0D096
:020B7D00E03264
:03001B00020A9244
:100A9200C0E0C083C082C0D075D000C000C005C015
:100AA20006C007C28E758DEC758B780516E5165457
:100AB20003F516FF7401A807088002C333D8FCF5BA
:100AC20018E59054C0443C4516F59074002517F57E
:100AD20082E43400F583E0908018F075110074040C
:100AE2007E00A811088005C333CE33CED8F9FFADFE
:100AF20090EF5D700AE51125E025E02516F5170552
:100B020011E511B404D8C28FD28ED007D006D00519
:0B0B1200D000D0D0D082D083D0E032E1
:050BFB00908006E022DD
:03000000020A06EB
:0C0A0600787FE4F6D8FD758119020A4DD6
:10096900EF8DF0A4A8F0CF8CF0A428CE8DF0A42EA2
:02097900FE225C
:10097B00BC000BBE0029EF8DF084FFADF022E4CC60
:10098B00F875F008EF2FFFEE33FEEC33FCEE9DEC29
:10099B00984005FCEE9DFE0FD5F0E9E4CEFD22ED6F
:1009AB00F8F5F0EE8420D21CFEADF075F008EF2FB9
:1009BB00FFED33FD4007985006D5F0F222C398FDAA
:0509CB000FD5F0EA2247
:1009D000C2D5EC30E709B2D5E4C39DFDE49CFCEE42
:1009E00030E715B2D5E4C39FFFE49EFE12097BC336
:1009F000E49DFDE49CFC800312097B30D507C3E431
:060A00009FFFE49EFE22B0
:100A1200020800E493A3F8E493A34003F68001F2F2
:100A220008DFF48029E493A3F85407240CC8C333E5
:100A3200C4540F4420C8834004F456800146F6DFB4
:100A4200E4800B0102040810204080900B7FE47EBA
:100A5200019360BCA3FF543F30E509541FFEE493A9
:100A6200A360010ECF54C025E060A840B8E493A370
:100A7200FAE493A3F8E493A3C8C582C8CAC583CA9B
:100A8200F0A3C8C582C8CAC583CADFE9DEE780BE53
:010BB500003F
:00000001FF
