:100AFA00011400020E0000020C00010208000002AC
:070B0A000A000002120000C6
:0D0B1200908011F0120B1F7420908011F0E4
:080B1F00908012E020E7F922AA
:10080000120B569080087401F0E4F510F5110511F3
:10081000E51170020510B498F5E510B43AF0908037
:10082000107438F0E4F510F5110511E511700205AA
:1008300010B468F5E510B410F09080107438F0E44E
:10084000F510F5110511E5117002051064784510D9
:1008500070F29080107438F0120B1F908010743872
:10086000F0120B1F908010740CF0120B1F90801070
:100870007402F014F0120B1F9080107406F0120B2B
:100880001F9080107480F0120B1F750C00750DFA0C
:10089000120B397510008F118511147450120B1B37
:1008A000908011744FF0120B1F9080117454F0124D
:1008B0000B1F7430120B12AE10AF117C007D64124E
:1008C0000981EF2430120B1BAE10AF117C007D6448
:1008D0001209818C108D11AE10AF117C007D0A12AF
:1008E0000981EF2430120B1BAE10AF117C007D0A82
:1008F000120981ED2430120B1B9080107480F012CD
:100900000B1F9080117450F0120B1F9080117457C0
:10091000F0120B1F744D120B129080117466120BA3
:1009200015AE0CAF0D7C007D641209D6EF24301299
:100930000B1BAE0CAF0D7C007D641209D68C0C8DA8
:100940000DAE0CAF0D7C007D0A1209D6EF243012DB
:100950000B1BAE0CAF0D7C007D0A1209D6ED2430C6
:0F096000120B1B90801074C0F0120B1F02088A3C
:100B2700758911758850E4F58CF58AD2A9D2AFD2B0
:020B37008C220E
:0F0B3900E4FF908005F00FBF78FC908005E0FF8F
:010B4800228A
:060B5600E4F514020B2778
:03000B00020A984E
:100A9800C0E0C0F0C0D075D000C000C004C005C020
:100AA80006C007C28C758CEC758A7830960EC29693
:100AB800C374FF9514FFE49400FE8006D296AF1429
:100AC8007E00AC0CAD0D12096F8E0E8F0FE50EFF78
:100AD800C374FF9FF58CC374FF950FF58AC28DD23E
:100AE8008CD007D006D005D004D000D0D0D0F0D01C
:020AF800E032EA
:03001B00020B498C
:0D0B4900C28E758DEC758B78C28FD28E3206
:050B5C00908006E0227C
:03000000020A0CE5
:0C0A0C00787FE4F6D8FD758114020A53CF
:10096F00EF8DF0A4A8F0CF8CF0A428CE8DF0A42E9C
:02097F00FE2256
:10098100BC000BBE0029EF8DF084FFADF022E4CC5A
:10099100F875F008EF2FFFEE33FEEC33FCEE9DEC23
:1009A100984005FCEE9DFE0FD5F0E9E4CEFD22ED69
:1009B100F8F5F0EE8420D21CFEADF075F008EF2FB3
:1009C100FFED33FD4007985006D5F0F222C398FDA4
:0509D1000FD5F0EA2241
:1009D600C2D5EC30E709B2D5E4C39DFDE49CFCEE3C
:1009E60030E715B2D5E4C39FFFE49EFE120981C32A
:1009F600E49DFDE49CFC800312098130D507C3E425
:060A06009FFFE49EFE22AA
:100A1800020800E493A3F8E493A34003F68001F2EC
:100A280008DFF48029E493A3F85407240CC8C333DF
:100A3800C4540F4420C8834004F456800146F6DFAE
:100A4800E4800B0102040810204080900AFAE47E3A
:100A5800019360BCA3FF543F30E509541FFEE493A3
:100A6800A360010ECF54C025E060A840B8E493A36A
:100A7800FAE493A3F8E493A3C8C582C8CAC583CA95
:100A8800F0A3C8C582C8CAC583CADFE9DEE780BE4D
:010B110000E3
:00000001FF
